{
  "_format": "hh-sol-artifact-1",
  "contractName": "MockV3Aggregator",
  "sourceName": "contracts/mocks/MockV3Aggregator.sol",
  "abi": [
    {
      "inputs": [
        {
          "internalType": "uint8",
          "name": "_decimals",
          "type": "uint8"
        },
        {
          "internalType": "int256",
          "name": "_initialAnswer",
          "type": "int256"
        }
      ],
      "stateMutability": "nonpayable",
      "type": "constructor"
    },
    {
      "inputs": [],
      "name": "decimals",
      "outputs": [
        {
          "internalType": "uint8",
          "name": "",
          "type": "uint8"
        }
      ],
      "stateMutability": "view",
      "type": "function"
    },
    {
      "inputs": [],
      "name": "description",
      "outputs": [
        {
          "internalType": "string",
          "name": "",
          "type": "string"
        }
      ],
      "stateMutability": "pure",
      "type": "function"
    },
    {
      "inputs": [
        {
          "internalType": "uint256",
          "name": "",
          "type": "uint256"
        }
      ],
      "name": "getAnswer",
      "outputs": [
        {
          "internalType": "int256",
          "name": "",
          "type": "int256"
        }
      ],
      "stateMutability": "view",
      "type": "function"
    },
    {
      "inputs": [
        {
          "internalType": "uint80",
          "name": "_roundId",
          "type": "uint80"
        }
      ],
      "name": "getRoundData",
      "outputs": [
        {
          "internalType": "uint80",
          "name": "roundId",
          "type": "uint80"
        },
        {
          "internalType": "int256",
          "name": "answer",
          "type": "int256"
        },
        {
          "internalType": "uint256",
          "name": "startedAt",
          "type": "uint256"
        },
        {
          "internalType": "uint256",
          "name": "updatedAt",
          "type": "uint256"
        },
        {
          "internalType": "uint80",
          "name": "answeredInRound",
          "type": "uint80"
        }
      ],
      "stateMutability": "view",
      "type": "function"
    },
    {
      "inputs": [
        {
          "internalType": "uint256",
          "name": "",
          "type": "uint256"
        }
      ],
      "name": "getTimestamp",
      "outputs": [
        {
          "internalType": "uint256",
          "name": "",
          "type": "uint256"
        }
      ],
      "stateMutability": "view",
      "type": "function"
    },
    {
      "inputs": [],
      "name": "latestAnswer",
      "outputs": [
        {
          "internalType": "int256",
          "name": "",
          "type": "int256"
        }
      ],
      "stateMutability": "view",
      "type": "function"
    },
    {
      "inputs": [],
      "name": "latestRound",
      "outputs": [
        {
          "internalType": "uint256",
          "name": "",
          "type": "uint256"
        }
      ],
      "stateMutability": "view",
      "type": "function"
    },
    {
      "inputs": [],
      "name": "latestRoundData",
      "outputs": [
        {
          "internalType": "uint80",
          "name": "roundId",
          "type": "uint80"
        },
        {
          "internalType": "int256",
          "name": "answer",
          "type": "int256"
        },
        {
          "internalType": "uint256",
          "name": "startedAt",
          "type": "uint256"
        },
        {
          "internalType": "uint256",
          "name": "updatedAt",
          "type": "uint256"
        },
        {
          "internalType": "uint80",
          "name": "answeredInRound",
          "type": "uint80"
        }
      ],
      "stateMutability": "view",
      "type": "function"
    },
    {
      "inputs": [],
      "name": "latestTimestamp",
      "outputs": [
        {
          "internalType": "uint256",
          "name": "",
          "type": "uint256"
        }
      ],
      "stateMutability": "view",
      "type": "function"
    },
    {
      "inputs": [
        {
          "internalType": "int256",
          "name": "_answer",
          "type": "int256"
        }
      ],
      "name": "updateAnswer",
      "outputs": [],
      "stateMutability": "nonpayable",
      "type": "function"
    },
    {
      "inputs": [],
      "name": "version",
      "outputs": [
        {
          "internalType": "uint256",
          "name": "",
          "type": "uint256"
        }
      ],
      "stateMutability": "pure",
      "type": "function"
    }
  ],
  "bytecode": "0x608060405234801561001057600080fd5b5060405161099b38038061099b8339818101604052810190610032919061014d565b816000806101000a81548160ff021916908360ff16021790555061005b8161006260201b60201c565b505061020e565b806001819055504260028190555060036000815480929190610083906101c6565b919050555080600460006003548152602001908152602001600020819055504260056000600354815260200190815260200160002081905550426006600060035481526020019081526020016000208190555050565b600080fd5b600060ff82169050919050565b6100f4816100de565b81146100ff57600080fd5b50565b600081519050610111816100eb565b92915050565b6000819050919050565b61012a81610117565b811461013557600080fd5b50565b60008151905061014781610121565b92915050565b60008060408385031215610164576101636100d9565b5b600061017285828601610102565b925050602061018385828601610138565b9150509250929050565b7f4e487b7100000000000000000000000000000000000000000000000000000000600052601160045260246000fd5b6000819050919050565b60006101d1826101bc565b91507fffffffffffffffffffffffffffffffffffffffffffffffffffffffffffffffff82036102035761020261018d565b5b600182019050919050565b61077e8061021d6000396000f3fe608060405234801561001057600080fd5b50600436106100a95760003560e01c80638205bf6a116100715780638205bf6a146101445780639a6fc8f514610162578063a87a20ce14610196578063b5ab58dc146101b2578063b633620c146101e2578063feaf968c14610212576100a9565b8063313ce567146100ae57806350d25bcd146100cc57806354fd4d50146100ea578063668a0f02146101085780637284e41614610126575b600080fd5b6100b6610234565b6040516100c39190610414565b60405180910390f35b6100d4610245565b6040516100e19190610448565b60405180910390f35b6100f261024b565b6040516100ff919061047c565b60405180910390f35b610110610250565b60405161011d919061047c565b60405180910390f35b61012e610256565b60405161013b9190610527565b60405180910390f35b61014c610293565b604051610159919061047c565b60405180910390f35b61017c60048036038101906101779190610590565b610299565b60405161018d9594939291906105cc565b60405180910390f35b6101b060048036038101906101ab919061064b565b610316565b005b6101cc60048036038101906101c791906106a4565b61038d565b6040516101d99190610448565b60405180910390f35b6101fc60048036038101906101f791906106a4565b6103a5565b604051610209919061047c565b60405180910390f35b61021a6103bd565b60405161022b9594939291906105cc565b60405180910390f35b60008054906101000a900460ff1681565b60015481565b600090565b60035481565b60606040518060400160405280601f81526020017f76302e382f74657374732f4d6f636b563341676772656761746f722e736f6c00815250905090565b60025481565b600080600080600085600460008869ffffffffffffffffffff16815260200190815260200160002054600660008969ffffffffffffffffffff16815260200190815260200160002054600560008a69ffffffffffffffffffff16815260200190815260200160002054899450945094509450945091939590929450565b80600181905550426002819055506003600081548092919061033790610700565b919050555080600460006003548152602001908152602001600020819055504260056000600354815260200190815260200160002081905550426006600060035481526020019081526020016000208190555050565b60046020528060005260406000206000915090505481565b60056020528060005260406000206000915090505481565b600080600080600060035460015460066000600354815260200190815260200160002054600254600354945094509450945094509091929394565b600060ff82169050919050565b61040e816103f8565b82525050565b60006020820190506104296000830184610405565b92915050565b6000819050919050565b6104428161042f565b82525050565b600060208201905061045d6000830184610439565b92915050565b6000819050919050565b61047681610463565b82525050565b6000602082019050610491600083018461046d565b92915050565b600081519050919050565b600082825260208201905092915050565b60005b838110156104d15780820151818401526020810190506104b6565b60008484015250505050565b6000601f19601f8301169050919050565b60006104f982610497565b61050381856104a2565b93506105138185602086016104b3565b61051c816104dd565b840191505092915050565b6000602082019050818103600083015261054181846104ee565b905092915050565b600080fd5b600069ffffffffffffffffffff82169050919050565b61056d8161054e565b811461057857600080fd5b50565b60008135905061058a81610564565b92915050565b6000602082840312156105a6576105a5610549565b5b60006105b48482850161057b565b91505092915050565b6105c68161054e565b82525050565b600060a0820190506105e160008301886105bd565b6105ee6020830187610439565b6105fb604083018661046d565b610608606083018561046d565b61061560808301846105bd565b9695505050505050565b6106288161042f565b811461063357600080fd5b50565b6000813590506106458161061f565b92915050565b60006020828403121561066157610660610549565b5b600061066f84828501610636565b91505092915050565b61068181610463565b811461068c57600080fd5b50565b60008135905061069e81610678565b92915050565b6000602082840312156106ba576106b9610549565b5b60006106c88482850161068f565b91505092915050565b7f4e487b7100000000000000000000000000000000000000000000000000000000600052601160045260246000fd5b600061070b82610463565b91507fffffffffffffffffffffffffffffffffffffffffffffffffffffffffffffffff820361073d5761073c6106d1565b5b60018201905091905056fea2646970667358221220edb55e0c49295dc7bfc52ff0f05fe9289c4681abcd012429ebf3a838aac854bf64736f6c63430008140033",
  "linkReferences": {},
  "deployedLinkReferences": {}
}